:040000000C942D012E
:100004000C9492030C9497030C9400000C9400003D
:100014000C9400000C9400000C9400000C9400005C
:100024000C9400000C9400000C9400000C9400004C
:100034000C9400000C9400000C9400000C9400003C
:100044000C9400000C9400000C9400000C9400002C
:100054001027E80364000A000100001000011000EA
:1000640001005072657373202A20746F20456E74EA
:1000740065720A00456E74657220796F7572204945
:10008400443A200A00456E74657220796F757220B7
:100094006F6C642070617373636F64653A00456EBE
:1000A400746572206E65772070617373636F646525
:1000B4003A0052652D656E746572206E6577207006
:1000C400617373636F64653A004E65772050432013
:1000D40073746F7265640050617373636F646573E6
:1000E40020646F206E6F74206D61746368005772B2
:1000F4006F6E67206F6C642070617373636F6465E7
:100104000057726F6E6720494400456E7465722013
:1001140041646D696E2050433A0A00456E746572FD
:100124002073747564656E742049443A00456E7496
:100134006572206E65772050433A0A005043206967
:10014400732073746F7265640A00436F6E74616325
:10015400742041646D696E0050726F660041686D71
:10016400656400416D6572004164656C004F6D61AA
:100174007200456E74657220796F757220706173B8
:1001840073636F64653A0057656C636F6D652C200B
:10019400257300536F7272792C2077726F6E67200B
:1001A40070617373636F6465000080C001002D4E3D
:1001B400414E00494E4600001200600166001100E5
:1001C4007201780019008301890014009C01A200C7
:1001D4001700B001B6000E00C701CD001700D5010D
:1001E400DB001300EC01F2000900FF01050111001E
:1001F40008020E01120019021F010F002B02310127
:100204000E003A0240010E0048024E010E00560252
:100214004E01050064025C010600690261010500EB
:100224006F026701050074026C0105007902710117
:1002340011007E02780015008F0276011600A402D8
:1002440097010900BA0205010200F502AE0101009E
:10025400F902B0010000F894EE27ECBBF1E0FBBF1B
:10026400EBBFE5BF8DE0A2E0BB27ED938A95E9F7EC
:1002740080E094E0A0E6ED930197E9F7ECEBF1E080
:1002840085919591009761F0A591B5910590159090
:10029400BF01F00105900D920197E1F7FB01F0CF4A
:1002A400EFE5EDBFE4E0EEBFC0E6D1E00C949E02C2
:1002B400A0E182D4A0E6B1E070D40895BED59D013A
:1002C4004E815F810A8510E0D0D4FA93EA93EA85DF
:1002D400FB85FA93EA93A5E0B3D4C7D43596A0E09E
:1002E400A083C3D446835783C0D420873187EAE0F0
:1002F400E09F1A920A92C3D4AE0FBF1F1696AC9118
:1003040026D2EAE0E09FF0013196FA93EA93B7D45B
:10031400BFD410E01630A8F4EAE0E09FF001329672
:10032400DF01E12FF0E0EA0FFB1FFA93EA93A7D471
:10033400AE0FBF1FEE27A10FBE1FAC9108D21F5FE7
:10034400E9CF82D52D960895AA93279776D510E004
:1003540000E030E020E004D4A2E7B1E01ED440E0A5
:1003640050E010E0133018F498D41F5FFBCFABD4E7
:10037400B3D4E417F50709F06DC0F2D3A3E8B1E0F4
:100384000CD4E0E0EB87EC8700E0033050F4F9D1C3
:10039400EE83AB85BC85A7D4EB87FC87AED40F5F17
:1003A400F4CF91D4AE0FBF1F1896ED91FD91AB859C
:1003B400BC85EA17FB0709F047C0D2D3ACE9B1E02A
:1003C400ECD3E0E0E987EA8730E0333050F4D9D168
:1003D400EE83A985BA8587D4E987FA878ED43F5FEF
:1003E400F4CFBED3A0EBB1E08DD4233030F490D45D
:1003F400EF83F88782D42F5FF8CFEF81F885A98542
:10040400BA85EA17FB07D1F4ED85F0E06E857F85A8
:1004140084D4A985BA85A083B183AD8585D4FA93A4
:10042400EA93EF85F0E06889798983D431D498D34D
:10043400A7ECB1E0B2D3A0EDB7E004C091D3A5ED31
:10044400B1E07CD423D505C08BD3ACEEB1E076D437
:100454001DD504C085D3AFEFB1E084D429DFF4D433
:1004640060960895BA93AA932397E7D479D3A8E022
:10047400B2E093D300E010E020E0233040F481D1D7
:10048400EE8381D4EE8186D438D42F5FF6CFEBE7A8
:10049400F0E0E017F10709F044C062D3A9E1B2E04B
:1004A4007CD340E050E020E0233018F4F6D32F5FF3
:1004B400FBCF30E0353058F573D43BD40DD44E1710
:1004C4005F0719F54DD3ABE2B2E01CD4233030F40E
:1004D4001FD4EF83F88711D42F5FF8CF61D41DD4D4
:1004E400AF81B885A083B183EAE0E39FF001319640
:1004F400FA93EA93E32FF0E06B857C851AD4C8D392
:100504002FD3AAE3B2E051D402C03F5FD3CF35303A
:1005140039F426D3A8E4B2E025D4A0EDB7E0B6D4EC
:1005240007C01ED3A6E5B2E01DD4A0EDB7E0AED45B
:10053400BFDE8AD42B960895BBDEE7E0E4BBE8EF88
:10054400E5BBB89AB99ABA9AA0E136D38A98929A36
:1005540030D4E064EBBF8B98939A2BD4E068EBBF64
:1005640031D4E0E0EA93E4E6F2E0FA93EA93EFE6CA
:10057400F0E0FA93EA93ABE7B0E0A0DE23D4E1E045
:10058400EA93E9E6F2E0FA93EA93EEE7F0E0FA930D
:10059400EA93A1E8B0E092DE15D4E2E0EA93EFE654
:1005A400F2E0FA93EA93E0E8F0E0FA93EA93ADE735
:1005B400B0E084DE07D4E3E0EA93E4E7F2E0FA9300
:1005C400EA93E2E8F0E0FA93EA93A2EEB0E076DE92
:1005D400F9D3E4E0EA93E9E7F2E0FA93EA93E4E892
:1005E400F0E0FA93EA93A3EBB0E068DE2397E0E04F
:1005F400EA835EDEC6D05E2F5A3209F08EC0B0D2D6
:10060400AEE7B2E0CAD200E010E05524E3E05E16A3
:1006140070F42197B6D0E883A881ACD2A8ECB0E0FE
:1006240035D4B1D3E881B6D321965394EFCF552472
:10063400E5E05E1608F066C02297A52DEAE0EA9F81
:10064400F001DF0192D0F0E0E883F983E017F107CD
:1006540009F055C085D2AFE8B2E09FD220E030E087
:10066400E0E0EC83AC81A33098F48BD05E2FAAE059
:10067400A29FF001A39FF00DDF01E52FF0E0F097BA
:10068400EA0FFB1F9F0139D3EC81EF5FEC83EACFC4
:10069400A52D4AD3DF0169D0F0E0EA83FB83E2179A
:1006A400F307E1F45DD2EBE8F1E0FA93EA93E52D88
:1006B400AAE0EA9FF001ED53FD4F66277727E1D3C7
:1006C40084E0F3D12696A0EDB7E0E0D3C09AC19AB6
:1006D400A0EDB7E0DBD3C098C1980FC041D2A4EA23
:1006E400B2E063D3C29AA4EFB1E0D0D3C298A4EF2E
:1006F400B1E0CCD3A0EDB7E0C9D3229603C02296D3
:10070400539496CFE5E0E51539F42AD2AAEBB2E08A
:1007140029D3A8EEB3E0BAD3CBDD239667CFFFCFBE
:1007240056D3A3ECB2E09EDE04C051D34BD3A52D27
:100734000BDEE991EFBFF991E991B991A9919991F2
:10074400899179916991F99019900990189577D3C5
:100754001A2F2C813D81E199FECF3FBB2EBB1DBBDF
:10076400E29AE19A73D3269608951A930A938D0117
:10077400E199FECF1FBB0EBBE09AEDB3099119912D
:100784000895A898A99AAA9AE3B3E63F29F49B9BF3
:10079400FECFE1E3089514C0EE3E29F49C9BFECF06
:1007A400E4E308950DC0EE3D29F49D9BFECFE7E3FD
:1007B400089506C0EE3B21F49E9BFECFEAE2089525
:1007C400A89AA998AA9AE3B3E53F29F49B9BFECF84
:1007D400E2E3089514C0ED3E29F49C9BFECFE5E3CB
:1007E40008950DC0ED3D29F49D9BFECFE8E30895E7
:1007F40006C0ED3B21F49E9BFECFE0E30895A89A4A
:10080400A99AAA98E3B3E33F29F49B9BFECFE3E3C1
:10081400089514C0EB3E29F49C9BFECFE6E30895B3
:100824000DC0EB3D29F49D9BFECFE9E3089506C07E
:10083400EB3B21F49E9BFECFE3E20895A2CFBA9353
:10084400AA932697FAD210E0AC85BD85E0E0F0E0EB
:10085400ED93FC93EA89FB893196EA8BFB8B319704
:10086400E4912E2FE03009F40BC1E12FE03031F494
:10087400253211F411E001C0B8D201C1E130A1F474
:10088400253211F4B2D2FAC012E040E000E02D3279
:1008940011F401E0F4C02B3211F44BE2F0C0203229
:1008A40011F440E2ECC002C0E23039F450E013E04D
:1008B400203311F40068E3C003C0E33009F0DFC063
:1008C400203310F02A3308F007C0AAE05A9F502DB5
:1008D400E22FE0535E0FD3C0E22FE33639F48CD21B
:1008E400E889F989A481AA938DD2C8C0E33729F491
:1008F40083D28ED28CD11E2F07C0E03749F47CD22C
:1009040087D291D11E2F086002600F7730E03AC081
:10091400E43611F0E93611F4046002C0E53731F42D
:10092400E4E5F0E0EE83FF8315E00CC0E83511F454
:10093400086003C0E83709F0A1C0EEE5F0E0EE83FB
:10094400FF8314E002FF15C057D2A889B989149611
:10095400ED91FD91EA87FB87AB85AA2322F47BD234
:10096400EA87FB874DE2403011F01F5F01C00B7F27
:1009740009C042D2A889B9891496ED91FC911197C6
:10098400EA87FB8700FD10C0151770F407FF08C045
:1009940002FF04C00B7F242F115001C020E301C0CB
:1009A40020E223D25150F0CF312F01FF16C0303056
:1009B40099F003FF06C0EE81FF812591EE83FF834A
:1009C40005C0AE81BF812D91AE83BF830ED250305E
:1009D40009F051503150EBCF48C020E3EE81FF8144
:1009E4004CD2E887F987EE81FF813296EE83FF834C
:1009F400E885F985AA85BB85AE17BF0750F02F5F40
:100A0400A885B985EA85FB85EA1BFB0BEA87FB878A
:100A1400EFCF2A3328F003FF02C0295F01C0295D0C
:100A240004FD19C0213320F4A885B985119709F470
:100A340009C0531710F000FF01C011C020E207FFE6
:100A44000AC020E3006102FF06C00B7F4A93DAD19B
:100A5400503009F05150C9D1503009F05150315043
:100A6400A885B985129708F0B8CF00FF07C05030A9
:100A740029F05150E0E2EA93C5D1F9CF10E0EACE73
:100A8400AC85BD85ED91FD91DFD164960895D7D1F4
:100A94008D013C81A32F6ED0D801ED91FD9131964B
:100AA400FE93EE93D3D125960895FF92F82E2697C0
:100AB4001A930A93DE0114960024AF0DB01D8D0124
:100AC400E0E0EC83ED83EE83EF83DE0118960024EF
:100AD400AF0DB01DED91FD91FA93EA931A930A9329
:100AE400E9E4F5E0FA93EA93DE011896A8DE1981A9
:100AF40008812896FF9008951A931A2FEBB3EF708C
:100B0400AE2FE12FE07FEA2BEBBB8DE08A95F1F766
:100B1400DA9A8DE08A95F1F7DA988DE08A95F1F703
:100B240074C0AA93A881E8DFE881E295E883A881EC
:100B3400E3DF85E88A95F1F7219608951A930A93DD
:100B44001A2F0A81E12FF0E0EB50FD4FE081E00F16
:100B5400AE2FE7DF402E712E198108812396089568
:100B6400A2E060D1ACE0DDDFA1E05CD1E0E07E2E6C
:100B74004E2E08951A931A2F1A3011F0461438F095
:100B8400E0E0EA937394A72DD9DF1A30F1F143948E
:100B9400D89AA12FC6DFD89838C051D19D01D90168
:100BA4002F5F3F4FEC911E2FE03019F0A12FE2DFB1
:100BB400F6CF4CD1249608951A931A2FEAB3E06F16
:100BC400EABBD29AD09AD19ADA98D898D998612E59
:100BD400E12FE058E093F702E12FE054E093F802AC
:100BE400A4E1B0E053D122D121D120D1A0E284DF0D
:100BF40088EC90E00197F1F7A8E293DFA4E091DF9D
:100C0400A5E88FDFA6E08DDFABDF19910895BA93D5
:100C1400AA93A991B991EE27FF276D91662311F04C
:100C24003196FBCF0895BA93AA93AA27BB27E991DB
:100C3400F9910590002011F01196FBCFFD01089564
:100C4400AA937991E991F991A991B991CD01772369
:100C540051F07A9561916D936623C9F7772319F062
:100C64007A956D93FBCFFC010895E02FF0E06B853E
:100C74007C85AAE0B0E0F3D0E60FF71F0895E02FDB
:100C8400F0E06D857E85AAE0B0E0E9D0DB0108954F
:100C9400AE0FBF1F1896AC915ACD219772DDE88331
:100CA400A88168DFA8ECB0E0F1D0AAE0A49FF0012D
:100CB400A59FF00DDF01E881F0E0F097EA0FFB1F3C
:100CC400AF0121960895ED85F0E06E857F85AAE059
:100CD400B0E0C5D0DB010895AE0FBF1F1696ED91AD
:100CE400FC9111970895EAE00E943907DF01EE8133
:100CF400F0E0F097EA0FFB1F0895AAE23BDFA8ECAF
:100D0400B0E0C4C04ADFE0E0EF83E88720E0089564
:100D140038DDEE83AF81B885E6CFAAE0B0E09FD09E
:100D2400E60FF71F38960895EAE0EA9FF00131963E
:100D34000895AAE0B0E093D0DB0108952EDFA0ED82
:100D4400B7E0A4D0C29AA4EFB1E0A0D0C298A4EFB7
:100D5400B1E09CD0C29AA4EFB1E098D0C298A4EFBD
:100D6400B1E008951ADFC29AA4EFB1E08FD0C2981F
:100D7400A4EFB1E08BD0C29AA4EFB1E087D0C298BF
:100D8400A4EFB1E083C0AAE0A09FF001A19FF00D01
:100D9400DF010895F0E0F097EA0FFB1F8F0108953B
:100DA400E32FF0E069857A850895F7DEA0EDB7E0DA
:100DB4006DC0E5B7E260E5BFE5B7EE7FE5BF7894C7
:100DC400EBB70895E3ECF2E0FA93EA9308950A92FC
:100DD4001A92FA926A937A938A939A93AA93BA93F9
:100DE400EA93FA93EFB7EA9308952A93AD85BE8503
:100DF400EF85F88909950895E889F9893497E88B8E
:100E0400F98B0895AD85BE85EF85F8890995089518
:100E1400A889B9891496ED91FD91EE83FF83AE8183
:100E2400BF8108957EDEA3E0B0E030C0A0E364DEBD
:100E340088EC90E00197F1F708955A934A933A9316
:100E44002A931A930A9308955D814C813B812A81E8
:100E5400198108810895F195E195F0400895FA9F6C
:100E6400F02DEB9FF00DEA9FE02DF10D08956E2F0C
:100E74006A9FF0016B9FF00D08950590F491E02DA9
:100E840008957A936A93FA93EA930895109639F041
:100E9400A89580ED97E00197F1F71197C9F70895A8
:00000001FF
