:080000000C9443000C94000075
:100008000C9400000C9400000C9400000C94000068
:100018000C9400000C9400000C9400000C94000058
:100028000C9400000C9400000C9400000C94000048
:100038000C9400000C9400000C9400000C94000038
:100048000C9400000C9400000C9400001027E803A6
:1000580064000A000100001000011000010025647E
:10006800000001002D4E414E00494E46000080C060
:10007800010060016A000200640176000000F89443
:10008800EE27ECBBF1E0FBBFEBBFE5BF8DE0A2E0E4
:10009800BB27ED938A95E9F780E094E0A0E6ED931D
:1000A8000197E9F7E8E7F0E085919591009761F00D
:1000B800A591B59105901590BF01F00105900D929D
:1000C8000197E1F7FB01F0CFEFE5EDBFE4E0EEBF0C
:1000D800C0E6D1E00C94700000E010E0E7E0E4BB7B
:1000E800E8EFE5BBA0E14CD226D03E2FF801AFE007
:1000F800B0E0C3D2EA93D801E0E1F0E0B9D2AE2F84
:1001080010D2E6E6F0E0FA93EA93E32FFF2766279A
:100118007727CFD284E0A3D126960F5F1F4F0032F6
:10012800E0E01E071CF00FD200E010E0A4EFB1E001
:10013800C5D2DACFFFCFA898A99AAA9AE3B3E63F27
:1001480029F49B9BFECFE1E0089514C0EE3E29F40C
:100158009C9BFECFE4E008950DC0EE3D29F49D9BE5
:10016800FECFE7E0089506C0EE3B21F49E9BFECF4C
:10017800EAE00895A89AA998AA9AE3B3E53F29F472
:100188009B9BFECFE2E0089514C0ED3E29F49C9BB2
:10019800FECFE5E008950DC0ED3D29F49D9BFECF0F
:1001A800E8E0089506C0ED3B21F49E9BFECFE0E019
:1001B8000895A89AA99AAA98E3B3E33F29F49B9BC8
:1001C800FECFE3E0089514C0EB3E29F49C9BFECFDC
:1001D800E6E008950DC0EB3D29F49D9BFECFE9E0D4
:1001E800089506C0EB3B21F49E9BFECFEBE00895FB
:1001F800A2CFBA93AA93269716D210E0AC85BD85F4
:10020800E0E0F0E0ED93FC93EA89FB893196EA8B14
:10021800FB8B3197E4912E2FE03009F40BC1E12FCD
:10022800E03031F4253211F411E001C0D4D101C11C
:10023800E130A1F4253211F4CED1FAC012E040E049
:1002480000E02D3211F401E0F4C02B3211F44BE23E
:10025800F0C0203211F440E2ECC002C0E23039F4C0
:1002680050E013E0203311F40068E3C003C0E3302A
:1002780009F0DFC0203310F02A3308F007C0AAE0E5
:100288005A9F502DE22FE0535E0FD3C0E22FE33682
:1002980039F4A8D1E889F989A481AA93A9D1C8C059
:1002A800E33729F49FD1AAD101D11E2F07C0E03727
:1002B80049F498D1A3D106D11E2F086002600F77A8
:1002C80030E03AC0E43611F0E93611F4046002C0B7
:1002D800E53731F4E4E5F0E0EE83FF8315E00CC088
:1002E800E83511F4086003C0E83709F0A1C0EEE56D
:1002F800F0E0EE83FF8314E002FF15C073D1A889F4
:10030800B9891496ED91FD91EA87FB87AB85AA23FD
:1003180022F497D1EA87FB874DE2403011F01F5F46
:1003280001C00B7F09C05ED1A889B9891496ED91E7
:10033800FC911197EA87FB8700FD10C0151770F430
:1003480007FF08C002FF04C00B7F242F115001C013
:1003580020E301C020E23FD15150F0CF312F01FFFF
:1003680016C0303099F003FF06C0EE81FF81259159
:10037800EE83FF8305C0AE81BF812D91AE83BF831D
:100388002AD1503009F051503150EBCF48C020E30A
:10039800EE81FF818AD1E887F987EE81FF81329665
:1003A800EE83FF83E885F985AA85BB85AE17BF076D
:1003B80050F02F5FA885B985EA85FB85EA1BFB0B02
:1003C800EA87FB87EFCF2A3328F003FF02C0295FB3
:1003D80001C0295D04FD19C0213320F4A885B98521
:1003E800119709F409C0531710F000FF01C011C09C
:1003F80020E207FF0AC020E3006102FF06C00B7F6E
:100408004A93F6D0503009F05150E5D0503009F0F9
:1004180051503150A885B985129708F0B8CF00FF20
:1004280007C0503029F05150E0E2EA93E1D0F9CF0B
:1004380010E0EACEAC85BD85ED91FD91FBD06496C8
:100448000895F3D08D013C81A32F87D0D801ED9179
:10045800FD913196FE93EE93EFD025960895FF9285
:10046800F82E26971A930A93DE0114960024AF0DEE
:10047800B01D8D01E0E0EC83ED83EE83EF83DE01B8
:1004880018960024AF0DB01DED91FD91FA93EA93F3
:100498001A930A93E5E2F2E0FA93EA93DE011896DA
:1004A800A8DE198108812896FF900895BA93AA9327
:1004B800A991B991EE27FF276D91662311F0319626
:1004C800FBCF0895BA93AA93AA27BB27E991F9917C
:1004D8000590002011F01196FBCFFD0108951A93A5
:1004E8001A2FEBB3EF70AE2FE12FE07FEA2BEBBBB7
:1004F8008DE08A95F1F7DA9A8DE08A95F1F7DA9826
:100508008DE08A95F1F765C0AA93A881E8DFE881B4
:10051800E295E883A881E3DF85E88A95F1F72196DB
:1005280008951A930A931A2F0A81E12FF0E0EC59E3
:10053800FE4FE081E00FAE2FE7DF502E412E1981EC
:10054800088123960895A2E063D0ACE0DDDFA1E046
:100558005FD0E0E04E2E5E2E08951A931A2F1A30BF
:1005680011F0571438F0E0E0EA934394A42DD9DF52
:100578001A3079F15394D89AA12FC6DFD89829C098
:100588001A931A2FEAB3E06FEABBD29AD09AD19A9B
:10059800DA98D898D998712EE12FE058E09366013F
:1005A800E12FE054E0936701A4E1B0E087D034D0B4
:1005B80033D032D0A0E293DF88EC90E00197F1F7D6
:1005C800A8E2A2DFA4E0A0DFA5E89EDFA6E09CDF0A
:1005D800BADF199108952A93AD85BE85EF85F8890C
:1005E80009950895E889F9893497E88BF98B089576
:1005F800AD85BE85EF85F88909950895A889B989DB
:100608001496ED91FD91EE83FF83AE81BF8108952D
:100618007BDFA3E0B0E052C0A0E361DF88EC90E0AC
:100628000197F1F708955A934A933A932A931A93A4
:100638000A9308955D814C813B812A811981088143
:100648000895F195E195F04008950024112490E172
:10065800AA0FBB1F001C111C0E1A1F0A18F40E0E3D
:100668001F1E01C0A1609A9599F7FD01D001089558
:100678000ED0EBDF0EF4E5DF0895E894F7FF02C033
:10068800E0DF6894EA23FB230EF4DBDF0895E894A7
:10069800F7FF02C0D6DF6894B7FF06C0B195A195F1
:1006A800B04000F8039400FA08950590F491E02D05
:1006B80008957A936A93FA93EA930895109639F015
:1006C800A89580ED97E00197F1F71197C9F708957C
:00000001FF
